{
  "transactions": [
    {
      "hash": "0x085adc674ad4bb8fbb6aff53370ade0eaf269c8790c95a40d7eafd2842074e57",
      "transactionType": "CALL",
      "contractName": null,
      "contractAddress": "0x779877a7b0d9e8603169ddbd7836e478b4624789",
      "function": "transferAndCall(address,uint256,bytes)",
      "arguments": [
        "0x9DdfaCa8183c41ad55329BdeeD9F6A8d53168B1B",
        "3000000000000000000",
        "0x2c00790ce7b2ee0775778930b9614db0521bf9db135e6a6f08e6dbba9bb7bf34"
      ],
      "transaction": {
        "from": "0x5eba55e1b43c8714e4432250dada7a518780c871",
        "to": "0x779877a7b0d9e8603169ddbd7836e478b4624789",
        "gas": "0x1603d",
        "value": "0x0",
        "input": "0x4000aea00000000000000000000000009ddfaca8183c41ad55329bdeed9f6a8d53168b1b00000000000000000000000000000000000000000000000029a2241af62c0000000000000000000000000000000000000000000000000000000000000000006000000000000000000000000000000000000000000000000000000000000000202c00790ce7b2ee0775778930b9614db0521bf9db135e6a6f08e6dbba9bb7bf34",
        "nonce": "0x8f",
        "chainId": "0xaa36a7"
      },
      "additionalContracts": [],
      "isFixedGasLimit": false
    }
  ],
  "receipts": [
    {
      "status": "0x1",
      "cumulativeGasUsed": "0xdea6d3",
      "logs": [
        {
          "address": "0x779877a7b0d9e8603169ddbd7836e478b4624789",
          "topics": [
            "0xddf252ad1be2c89b69c2b068fc378daa952ba7f163c4a11628f55a4df523b3ef",
            "0x0000000000000000000000005eba55e1b43c8714e4432250dada7a518780c871",
            "0x0000000000000000000000009ddfaca8183c41ad55329bdeed9f6a8d53168b1b"
          ],
          "data": "0x00000000000000000000000000000000000000000000000029a2241af62c0000",
          "blockHash": "0xca675f01f1eac4c34a75f18b2bddde34b51862e527e8f31a17ef5756de4afb8b",
          "blockNumber": "0x77a597",
          "blockTimestamp": "0x67c8ec70",
          "transactionHash": "0x085adc674ad4bb8fbb6aff53370ade0eaf269c8790c95a40d7eafd2842074e57",
          "transactionIndex": "0x89",
          "logIndex": "0xa8",
          "removed": false
        },
        {
          "address": "0x779877a7b0d9e8603169ddbd7836e478b4624789",
          "topics": [
            "0xe19260aff97b920c7df27010903aeb9c8d2be5d310a2c67824cf3f15396e4c16",
            "0x0000000000000000000000005eba55e1b43c8714e4432250dada7a518780c871",
            "0x0000000000000000000000009ddfaca8183c41ad55329bdeed9f6a8d53168b1b"
          ],
          "data": "0x00000000000000000000000000000000000000000000000029a2241af62c0000000000000000000000000000000000000000000000000000000000000000004000000000000000000000000000000000000000000000000000000000000000202c00790ce7b2ee0775778930b9614db0521bf9db135e6a6f08e6dbba9bb7bf34",
          "blockHash": "0xca675f01f1eac4c34a75f18b2bddde34b51862e527e8f31a17ef5756de4afb8b",
          "blockNumber": "0x77a597",
          "blockTimestamp": "0x67c8ec70",
          "transactionHash": "0x085adc674ad4bb8fbb6aff53370ade0eaf269c8790c95a40d7eafd2842074e57",
          "transactionIndex": "0x89",
          "logIndex": "0xa9",
          "removed": false
        },
        {
          "address": "0x9ddfaca8183c41ad55329bdeed9f6a8d53168b1b",
          "topics": [
            "0x1ced9348ff549fceab2ac57cd3a9de38edaaab274b725ee82c23e8fc8c4eec7a",
            "0x2c00790ce7b2ee0775778930b9614db0521bf9db135e6a6f08e6dbba9bb7bf34"
          ],
          "data": "0x000000000000000000000000000000000000000000000000de0b6b3a7640000000000000000000000000000000000000000000000000000107ad8f556c6c0000",
          "blockHash": "0xca675f01f1eac4c34a75f18b2bddde34b51862e527e8f31a17ef5756de4afb8b",
          "blockNumber": "0x77a597",
          "blockTimestamp": "0x67c8ec70",
          "transactionHash": "0x085adc674ad4bb8fbb6aff53370ade0eaf269c8790c95a40d7eafd2842074e57",
          "transactionIndex": "0x89",
          "logIndex": "0xaa",
          "removed": false
        }
      ],
      "logsBloom": "0x00000004000000000001000000000000000000000020000000000000028000000000000000000000000000000000000000000000000000000000000000000000000000000000000000000009000000000000000000000000000020000020000008000000000000000000000000000000000000000400000000000010000040000000000000000000000000010000800000000020000000000000000000000000000000000000000000000000010000000000000080000000000004000000000000000002000000000000000000000000000000000000000101000000000000000010000000000000800000000000000000000000000000000000000000000000",
      "type": "0x2",
      "transactionHash": "0x085adc674ad4bb8fbb6aff53370ade0eaf269c8790c95a40d7eafd2842074e57",
      "transactionIndex": "0x89",
      "blockHash": "0xca675f01f1eac4c34a75f18b2bddde34b51862e527e8f31a17ef5756de4afb8b",
      "blockNumber": "0x77a597",
      "gasUsed": "0xf0d9",
      "effectiveGasPrice": "0x1504c5e9",
      "from": "0x5eba55e1b43c8714e4432250dada7a518780c871",
      "to": "0x779877a7b0d9e8603169ddbd7836e478b4624789",
      "contractAddress": null
    }
  ],
  "libraries": [],
  "pending": [],
  "returns": {},
  "timestamp": 1741220978,
  "chain": 11155111,
  "commit": "731af52"
}